{
  "contractName": "LedgerLife",
  "abi": [
    {
      "constant": true,
      "inputs": [
        {
          "internalType": "uint256",
          "name": "",
          "type": "uint256"
        }
      ],
      "name": "grid",
      "outputs": [
        {
          "internalType": "uint256",
          "name": "",
          "type": "uint256"
        }
      ],
      "payable": false,
      "stateMutability": "view",
      "type": "function"
    },
    {
      "constant": true,
      "inputs": [
        {
          "internalType": "uint256",
          "name": "",
          "type": "uint256"
        }
      ],
      "name": "players",
      "outputs": [
        {
          "internalType": "address",
          "name": "addr",
          "type": "address"
        },
        {
          "internalType": "uint16",
          "name": "cellCount",
          "type": "uint16"
        }
      ],
      "payable": false,
      "stateMutability": "view",
      "type": "function"
    },
    {
      "constant": false,
      "inputs": [
        {
          "internalType": "uint240",
          "name": "cells",
          "type": "uint240"
        },
        {
          "internalType": "uint8",
          "name": "cellCount",
          "type": "uint8"
        },
        {
          "internalType": "uint8",
          "name": "playerID",
          "type": "uint8"
        }
      ],
      "name": "buyCells",
      "outputs": [],
      "payable": false,
      "stateMutability": "nonpayable",
      "type": "function"
    },
    {
      "constant": false,
      "inputs": [],
      "name": "life",
      "outputs": [],
      "payable": false,
      "stateMutability": "nonpayable",
      "type": "function"
    },
    {
      "constant": true,
      "inputs": [],
      "name": "getGrid",
      "outputs": [
        {
          "internalType": "uint256[32]",
          "name": "",
          "type": "uint256[32]"
        }
      ],
      "payable": false,
      "stateMutability": "view",
      "type": "function"
    },
    {
      "constant": true,
      "inputs": [],
      "name": "getPlayers",
      "outputs": [
        {
          "components": [
            {
              "internalType": "address",
              "name": "addr",
              "type": "address"
            },
            {
              "internalType": "uint16",
              "name": "cellCount",
              "type": "uint16"
            }
          ],
          "internalType": "struct LedgerLife.Player[256]",
          "name": "",
          "type": "tuple[256]"
        }
      ],
      "payable": false,
      "stateMutability": "view",
      "type": "function"
    }
  ],
  "bytecode": "0x608060405234801561001057600080fd5b50611465806100206000396000f3fe608060405234801561001057600080fd5b50600436106100625760003560e01c8063134000c01461006757806351d2cc8f146100855780638b5b9ccc146100b5578063a1499756146100d3578063c5310868146100ef578063f71d96cb146100f9575b600080fd5b61006f61012a565b60405161007c91906112ca565b60405180910390f35b61009f600480360361009a91908101906110f5565b610176565b6040516100ac91906112e6565b60405180910390f35b6100bd61018f565b6040516100ca91906112ae565b60405180910390f35b6100ed60048036036100e891908101906110a6565b610255565b005b6100f7610498565b005b610113600480360361010e91908101906110f5565b6105da565b604051610121929190611285565b60405180910390f35b610132610f2d565b61010060208060200260405190810160405280929190826020801561016c576020028201915b815481526020019060010190808311610158575b5050505050905090565b610100816020811061018457fe5b016000915090505481565b610197610f50565b600061010080602002604051908101604052809291906000905b8282101561024c578382016040518060400160405290816000820160009054906101000a900473ffffffffffffffffffffffffffffffffffffffff1673ffffffffffffffffffffffffffffffffffffffff1673ffffffffffffffffffffffffffffffffffffffff1681526020016000820160149054906101000a900461ffff1661ffff1661ffff1681525050815260200190600101906101b1565b50505050905090565b60008260ff1611801561026f5750601460ff168260ff1611155b61027857600080fd5b600073ffffffffffffffffffffffffffffffffffffffff1660008260ff1661010081106102a157fe5b0160000160009054906101000a900473ffffffffffffffffffffffffffffffffffffffff1673ffffffffffffffffffffffffffffffffffffffff16141561033b573360008260ff1661010081106102f457fe5b0160000160006101000a81548173ffffffffffffffffffffffffffffffffffffffff021916908373ffffffffffffffffffffffffffffffffffffffff1602179055506103a9565b3373ffffffffffffffffffffffffffffffffffffffff1660008260ff16610100811061036357fe5b0160000160009054906101000a900473ffffffffffffffffffffffffffffffffffffffff1673ffffffffffffffffffffffffffffffffffffffff16146103a857600080fd5b5b60008090505b8260ff168160ff16101561044c576000610fff85169050600c857dffffffffffffffffffffffffffffffffffffffffffffffffffffffffffff16901c945060008161ffff161015801561040a5750606461ffff168161ffff16105b61041357600080fd5b600061041e8261062d565b9050600060ff168160ff161461043357600080fd5b61043d828561068e565b505080806001019150506103af565b508160ff1660008260ff16610100811061046257fe5b0160000160148282829054906101000a900461ffff160192506101000a81548161ffff021916908361ffff160217905550505050565b6104a0610f7f565b6104a8610746565b90506104b2610f7f565b60008090505b606461ffff168161ffff1610156105cc576000600a60ff168261ffff16816104dc57fe5b0690506000600a60ff168361ffff16816104f257fe5b049050600061050286848461080f565b905060038160ff161480156105315750600060ff16868561ffff166064811061052757fe5b602002015160ff16145b15610557576000610543878585610a30565b905061055186866001610d5e565b506105bc565b600060ff16868561ffff166064811061056c57fe5b602002015160ff1614158015610596575060028160ff1610158015610595575060038160ff1611155b5b156105bb576105ba8585888761ffff16606481106105b057fe5b6020020151610d5e565b5b5b50505080806001019150506104b8565b506105d681610e29565b5050565b60008161010081106105e857fe5b016000915090508060000160009054906101000a900473ffffffffffffffffffffffffffffffffffffffff16908060000160149054906101000a900461ffff16905082565b600080602060ff168361ffff168161064157fe5b0490506000602060ff168461ffff168161065757fe5b06905060006101008360ff166020811061066d57fe5b015490506008600183602003030260ff1681901c9050809350505050919050565b6000602060ff168361ffff16816106a157fe5b0490506000602060ff168461ffff16816106b757fe5b06905060007fffffffffffffffffffffffffffffffffffffffffffffffffffffffffffffffff90506008600183602003030260ff1660ff901b8118905060006101008460ff166020811061070757fe5b0154905081811690506008600184602003030260ff168560ff16901b81179050806101008560ff166020811061073957fe5b0181905550505050505050565b61074e610f7f565b610756610f7f565b600080905060008090505b602061ffff168160ff1610156108065760006101008260ff166020811061078457fe5b0154905060008090505b602060ff168160ff161080156107ac5750606461ffff168461ffff16105b156107f7576008600182602003030260ff1682901c858561ffff16606481106107d157fe5b602002019060ff16908160ff16815250508380600101945050808060010191505061078e565b50508080600101915050610761565b50819250505090565b6000610819610fa2565b6040518061020001604052806001860360000b60000b81526020016001850360000b60000b81526020016001860360000b60000b81526020018460000b60000b81526020016001860360000b60000b81526020016001850160000b60000b81526020018560000b60000b81526020016001850360000b60000b81526020018560000b60000b81526020016001850160000b60000b81526020016001860160000b60000b81526020016001850360000b60000b81526020016001860160000b60000b81526020018460000b60000b81526020016001860160000b60000b81526020016001850160000b60000b8152509050600080905060008090505b60088160ff161015610a23576000838260ff166010811061093157fe5b602002015160000b121580156109605750600a60000b838260ff166010811061095657fe5b602002015160000b125b801561098657506000836001830160ff166010811061097b57fe5b602002015160000b12155b80156109ae5750600a60000b836001830160ff16601081106109a457fe5b602002015160000b125b15610a18576000838260ff16601081106109c457fe5b602002015190506000846001840160ff16601081106109df57fe5b60200201519050600060ff168982600a02840160ff16606481106109ff57fe5b602002015160ff1614610a155783806001019450505b50505b600281019050610914565b5080925050509392505050565b6000610a3a610fc5565b60405180610100016040528060405180604001604052806001880360000b81526020016001870360000b815250815260200160405180604001604052806001880360000b81526020018660000b815250815260200160405180604001604052806001880360000b81526020016001870160000b815250815260200160405180604001604052808760000b81526020016001870360000b815250815260200160405180604001604052808760000b81526020016001870160000b815250815260200160405180604001604052806001880160000b81526020016001870360000b815250815260200160405180604001604052806001880160000b81526020018660000b815250815260200160405180604001604052806001880160000b81526020016001870160000b8152508152509050610b72610ff3565b600080905060008090506000809050600080905060008090505b60088160ff161015610d16576000878260ff1660088110610ba957fe5b60200201516000015160000b12158015610be05750600a60000b878260ff1660088110610bd257fe5b60200201516000015160000b125b8015610c0757506000878260ff1660088110610bf857fe5b60200201516020015160000b12155b8015610c305750600a60000b878260ff1660088110610c2257fe5b60200201516020015160000b125b15610d09576000878260ff1660088110610c4657fe5b60200201516000015190506000888360ff1660088110610c6257fe5b602002015160200151905060008d82600a02840160ff1660648110610c8357fe5b6020020151905060008160ff1614610d055760008860ff161415610ca75780610ca9565b875b97508680600101975050610cbd8982610ed5565b15610cca57809550610d04565b60038560ff1610610cda57600080fd5b80898660ff1660038110610cea57fe5b602002019060ff16908160ff168152505084806001019550505b5b5050505b8080600101915050610b8c565b5060008260ff161415610d295783610d2b565b815b915060038360ff1614610d3d57600080fd5b60008260ff161415610d4e57600080fd5b8196505050505050509392505050565b606461ffff168261ffff1610610d7357600080fd5b600060ff168160ff161415610d8757600080fd5b6000808260ff166101008110610d9957fe5b0160000160149054906101000a900461ffff1661ffff1611610dba57600080fd5b60008160ff166101008110610dcb57fe5b01600001601481819054906101000a900461ffff168092919060010191906101000a81548161ffff021916908361ffff1602179055505080838361ffff1660648110610e1357fe5b602002019060ff16908160ff1681525050505050565b600080905060008090505b602061ffff168160ff161015610ed057600080905060008090505b602060ff168160ff16108015610e6d5750606461ffff168461ffff16105b15610eaa57600882901b9150848461ffff1660648110610e8957fe5b602002015160ff168201915083806001019450508080600101915050610e4f565b50806101008360ff1660208110610ebd57fe5b0181905550508080600101915050610e34565b505050565b600080600090505b60038160ff161015610f21578260ff16848260ff1660038110610efc57fe5b602002015160ff161415610f14576001915050610f27565b8080600101915050610edd565b50600090505b92915050565b604051806104000160405280602090602082028038833980820191505090505090565b604051806120000160405280610100905b610f69611015565b815260200190600190039081610f615790505090565b60405180610c800160405280606490602082028038833980820191505090505090565b604051806102000160405280601090602082028038833980820191505090505090565b6040518061010001604052806008905b610fdd611049565b815260200190600190039081610fd55790505090565b6040518060600160405280600390602082028038833980820191505090505090565b6040518060400160405280600073ffffffffffffffffffffffffffffffffffffffff168152602001600061ffff1681525090565b60405180604001604052806000800b81526020016000800b81525090565b600081359050611076816113dd565b92915050565b60008135905061108b816113f4565b92915050565b6000813590506110a08161140b565b92915050565b6000806000606084860312156110bb57600080fd5b60006110c986828701611067565b93505060206110da86828701611091565b92505060406110eb86828701611091565b9150509250925092565b60006020828403121561110757600080fd5b60006111158482850161107c565b91505092915050565b600061112a838361121a565b60408301905092915050565b60006111428383611267565b60208301905092915050565b6111578161135c565b82525050565b6111668161135c565b82525050565b61117581611315565b61117f8184611346565b925061118a82611301565b8060005b838110156111bb5781516111a2878261111e565b96506111ad8361132c565b92505060018101905061118e565b505050505050565b6111cc81611321565b6111d68184611351565b92506111e18261130b565b8060005b838110156112125781516111f98782611136565b965061120483611339565b9250506001810190506111e5565b505050505050565b604082016000820151611230600085018261114e565b5060208201516112436020850182611249565b50505050565b6112528161136e565b82525050565b6112618161136e565b82525050565b611270816113c6565b82525050565b61127f816113c6565b82525050565b600060408201905061129a600083018561115d565b6112a76020830184611258565b9392505050565b6000614000820190506112c4600083018461116c565b92915050565b6000610400820190506112e060008301846111c3565b92915050565b60006020820190506112fb6000830184611276565b92915050565b6000819050919050565b6000819050919050565b60006101009050919050565b600060209050919050565b6000602082019050919050565b6000602082019050919050565b600081905092915050565b600081905092915050565b60006113678261137c565b9050919050565b600061ffff82169050919050565b600073ffffffffffffffffffffffffffffffffffffffff82169050919050565b60007dffffffffffffffffffffffffffffffffffffffffffffffffffffffffffff82169050919050565b6000819050919050565b600060ff82169050919050565b6113e68161139c565b81146113f157600080fd5b50565b6113fd816113c6565b811461140857600080fd5b50565b611414816113d0565b811461141f57600080fd5b5056fea365627a7a72315820407b387f0c66d61e6ac7f7127ce33f9fba18ed1a479391b45c8b65a548f581bb6c6578706572696d656e74616cf564736f6c63430005100040",
  "source": "pragma solidity ^0.5.0;\npragma experimental ABIEncoderV2;\n\ncontract LedgerLife {\n    uint8 constant SIZE256 = 32;\n    uint8 constant FREE = 0;\n    uint8 constant MAX_BUY_COUNT = 20;\n    uint8 constant GRID_WIDTH = 10;\n    uint8 constant GRID_HEIGHT = 10;\n    uint16 constant GRID_SIZE = 100;\n    uint16 constant STORAGE_SIZE = 32; // GRID_SIZE/SIZE256 + 1\n\n    struct Player {\n        address addr;\n        uint16 cellCount;\n    }\n    Player[256] public players;\n\n    uint256[STORAGE_SIZE] public grid;\n\n    function _read_cell(uint16 index) private view returns(uint8){\n        uint8 segment_num = uint8(index / SIZE256);\n        uint8 element_num = uint8(index % SIZE256);\n        uint256 segment = grid[segment_num];\n        segment >>= ((SIZE256-element_num-1) * 8);\n        return uint8(segment);\n    }\n\n    function _write_cell(uint16 index, uint8 value) private {\n        uint8 segment_num = uint8(index / SIZE256);\n        uint8 element_num = uint8(index % SIZE256);\n        uint256 mask = 0xFFFFFFFFFFFFFFFFFFFFFFFFFFFFFFFFFFFFFFFFFFFFFFFFFFFFFFFFFFFFFFFF;\n        mask = mask ^ (uint256(0xFF) << ((SIZE256-element_num-1) * 8));\n\n        uint256 segment = grid[segment_num];\n        segment &= mask;\n        segment |= uint256(value) << ((SIZE256-element_num-1) * 8);\n        grid[segment_num] = segment;\n    }\n\n    function _unpack_grid() private view returns(uint8[GRID_SIZE] memory){\n        uint8[GRID_SIZE] memory m_grid;\n        uint16 index=0;\n        for (uint8 i = 0; i < STORAGE_SIZE; i++) {\n            uint256 segment = grid[i];\n            for (uint8 j = 0; j < SIZE256 && index < GRID_SIZE; j++) {\n                m_grid[index] = uint8(segment >> ((SIZE256-j-1) * 8));\n                index++;\n            }\n        }\n        return m_grid;\n    }\n\n    function _pack_grid(uint8[GRID_SIZE] memory m_grid) private {\n        uint16 index=0;\n        for (uint8 i = 0; i < STORAGE_SIZE; i++) {\n            uint256 segment = 0;\n            for (uint8 j = 0; j < SIZE256 && index < GRID_SIZE; j++) {\n                segment <<= 8;\n                segment += m_grid[index];\n                index++;\n            }\n            grid[i] = segment;\n        }\n    }\n\n    // take ownership of a list of cells\n    function buyCells(\n        uint240 cells,\n        uint8 cellCount,\n        uint8 playerID\n    ) public {\n        // max 20 cells can be bought in a single call\n        require(cellCount > 0 && cellCount <= MAX_BUY_COUNT);\n\n        if(players[playerID].addr == address(0)){\n            players[playerID].addr = msg.sender;\n        }\n        else{\n            // check that the playerID matches the caller address\n            require(players[playerID].addr == msg.sender);\n        }\n\n        // assign each cell to the player's ID\n        for (uint8 index = 0; index < cellCount; index++) {\n            uint16 cell_index = (uint16)(cells & 0x0FFF);\n            cells = cells >> 12;\n            // check that the cell is contained in the grid\n            require(cell_index >= 0 && cell_index < GRID_SIZE);\n            // check that the cell is not yet owned\n            uint8 cell_owner = _read_cell(cell_index);\n            require(cell_owner == FREE);\n            _write_cell(cell_index, playerID);\n        }\n\n        // finally, increase the player's cell count\n        players[playerID].cellCount += cellCount;\n    }\n\n    // internal function used to add new cells created via reproduction\n    function _add_cell(\n        uint8[GRID_SIZE] memory m_grid,\n        uint16 index,\n        uint8 playerID\n    ) private {\n        require(index < GRID_SIZE);\n        require(playerID != FREE);\n        // if the player has less than 1 cell, there is no way he'd get a new cell by reproduction\n        require(players[playerID].cellCount > 0);\n        players[playerID].cellCount++;\n        m_grid[index] = playerID;\n    }\n\n    function _remove_cell(\n        uint8[GRID_SIZE] memory m_grid,\n        uint8 x,\n        uint8 y\n    ) private {\n        require(x < GRID_WIDTH);\n        require(y < GRID_HEIGHT);\n        uint8 playerID = m_grid[y * GRID_SIZE + x];\n        require(playerID != FREE);\n        m_grid[y * GRID_WIDTH + x] = FREE;\n        require(players[playerID].cellCount > 0);\n        players[playerID].cellCount -= 1;\n    }\n\n    function is_owned(uint8 cell) private pure returns (uint8) {\n        if (cell != 0) {\n            return 1;\n        }\n        return 0;\n    }\n\n    struct Coordinate {\n        int8 x;\n        int8 y;\n    }\n\n    function _contains(uint8[3] memory array, uint8 value)\n        private\n        pure\n        returns (bool)\n    {\n        for (uint8 i = 0; i < array.length; i++) {\n            if (array[i] == value) {\n                return true;\n            }\n        }\n        return false;\n    }\n\n    function get_winner_neighbour(\n        uint8[GRID_SIZE] memory m_grid,\n        int8 x,\n        int8 y\n    ) private pure returns (uint8) {\n        Coordinate[8] memory neighbours = [\n            Coordinate(x - 1, y - 1),\n            Coordinate(x - 1, y),\n            Coordinate(x - 1, y + 1),\n            Coordinate(x, y - 1),\n            Coordinate(x, y + 1),\n            Coordinate(x + 1, y - 1),\n            Coordinate(x + 1, y),\n            Coordinate(x + 1, y + 1)\n        ];\n\n        uint8[3] memory neighboursList;\n        uint8 firstNeighbour = 0;\n        uint8 neighboursCount = 0;\n        uint8 winner = 0;\n        uint8 neighbourIndex = 0;\n\n        for (uint8 i = 0; i < 8; i++) {\n            if (\n                neighbours[i].x >= 0 &&\n                neighbours[i].x < int8(GRID_WIDTH) &&\n                neighbours[i].y >= 0 &&\n                neighbours[i].y < int8(GRID_HEIGHT)\n            ) {\n                uint8 _x = uint8(neighbours[i].x);\n                uint8 _y = uint8(neighbours[i].y);\n                uint8 currentNeighbour = m_grid[_x + GRID_WIDTH * _y];\n                if (currentNeighbour != 0) {\n                    firstNeighbour = firstNeighbour != 0\n                        ? firstNeighbour\n                        : currentNeighbour;\n                    neighboursCount++;\n                    if (_contains(neighboursList, currentNeighbour)) {\n                        winner = currentNeighbour;\n                    } else {\n                        require(neighbourIndex < 3);\n                        neighboursList[neighbourIndex] = currentNeighbour;\n                        neighbourIndex++;\n                    }\n                }\n            }\n        }\n        // If there is no majority neighbour, then the first neighbour wins\n        winner = winner != 0 ? winner : firstNeighbour;\n        require(neighboursCount == 3);\n        require(winner != 0);\n        return winner;\n    }\n\n    function count_neighbours(\n        uint8[GRID_SIZE] memory m_grid,\n        int8 x,\n        int8 y\n    ) private pure returns (uint8) {\n        int8[16] memory neighbours = [\n            x - 1, y - 1,\n            x - 1, y,\n            x - 1, y + 1,\n            x, y - 1,\n            x, y + 1,\n            x + 1, y - 1,\n            x + 1, y,\n            x + 1, y + 1\n        ];\n\n        uint8 neighboursCount = 0;\n\n        for (uint8 i = 0; i < 8; i+=2) {\n            if (\n                neighbours[i] >= 0 &&\n                neighbours[i] < int8(GRID_WIDTH) &&\n                neighbours[i+1] >= 0 &&\n                neighbours[i+1] < int8(GRID_HEIGHT)\n            ) {\n                uint8 _x = uint8(neighbours[i]);\n                uint8 _y = uint8(neighbours[i+1]);\n                if(m_grid[_x + (GRID_WIDTH * _y)] != FREE){\n                    neighboursCount++;\n                }\n            }\n        }\n        return neighboursCount;\n    }\n\n    function life() public {\n        uint8[GRID_SIZE] memory m_grid_old = _unpack_grid();\n        uint8[GRID_SIZE] memory m_grid_new;\n        for (uint16 index = 0; index < GRID_SIZE; index++) {\n            int8 x = int8(index % GRID_WIDTH);\n            int8 y = int8(index / GRID_HEIGHT);\n            uint8 neighboursCount = count_neighbours(m_grid_old, x, y);\n            if (neighboursCount == 3 && m_grid_old[index] == FREE ) {\n                uint8 newCellOwner = get_winner_neighbour(\n                    m_grid_old,\n                    x, y\n                );\n                _add_cell(m_grid_new, index, 1);\n            }\n            else if ( m_grid_old[index] != FREE && (neighboursCount >= 2 && neighboursCount <= 3)) {\n                _add_cell(m_grid_new, index, m_grid_old[index]);\n            }\n        }\n        _pack_grid(m_grid_new);\n    }\n\n    function getGrid() public view returns (uint256[STORAGE_SIZE] memory) {\n        return grid;\n    }\n\n    function getPlayers() public view returns (Player[256] memory) {\n        return players;\n    }\n}\n",
  "sourcePath": "/Users/user1/Desktop/Ledger-Life/front/solidity/contracts/LedgerLife.sol",
  "compiler": {
    "name": "solc",
    "version": "0.5.16+commit.9c3226ce.Emscripten.clang"
  },
  "schemaVersion": "3.3.2",
  "updatedAt": "2020-12-17T09:35:39.881Z",
  "networkType": "ethereum",
  "devdoc": {
    "methods": {}
  },
  "userdoc": {
    "methods": {}
  }
}