{
  "contractName": "LedgerLife",
  "abi": [
    {
      "constant": true,
      "inputs": [
        {
          "internalType": "uint256",
          "name": "",
          "type": "uint256"
        }
      ],
      "name": "grid",
      "outputs": [
        {
          "internalType": "uint8",
          "name": "",
          "type": "uint8"
        }
      ],
      "payable": false,
      "stateMutability": "view",
      "type": "function"
    },
    {
      "constant": true,
      "inputs": [
        {
          "internalType": "uint256",
          "name": "",
          "type": "uint256"
        }
      ],
      "name": "players",
      "outputs": [
        {
          "internalType": "address",
          "name": "addr",
          "type": "address"
        },
        {
          "internalType": "uint16",
          "name": "cellCount",
          "type": "uint16"
        }
      ],
      "payable": false,
      "stateMutability": "view",
      "type": "function"
    },
    {
      "constant": false,
      "inputs": [
        {
          "internalType": "uint240",
          "name": "cells",
          "type": "uint240"
        },
        {
          "internalType": "uint8",
          "name": "cellCount",
          "type": "uint8"
        },
        {
          "internalType": "uint8",
          "name": "playerID",
          "type": "uint8"
        }
      ],
      "name": "buyCells",
      "outputs": [],
      "payable": false,
      "stateMutability": "nonpayable",
      "type": "function"
    },
    {
      "constant": false,
      "inputs": [],
      "name": "life",
      "outputs": [],
      "payable": false,
      "stateMutability": "nonpayable",
      "type": "function"
    },
    {
      "constant": true,
      "inputs": [],
      "name": "getGrid",
      "outputs": [
        {
          "internalType": "uint8[1024]",
          "name": "",
          "type": "uint8[1024]"
        }
      ],
      "payable": false,
      "stateMutability": "view",
      "type": "function"
    },
    {
      "constant": true,
      "inputs": [],
      "name": "getPlayers",
      "outputs": [
        {
          "components": [
            {
              "internalType": "address",
              "name": "addr",
              "type": "address"
            },
            {
              "internalType": "uint16",
              "name": "cellCount",
              "type": "uint16"
            }
          ],
          "internalType": "struct LedgerLife.Player[256]",
          "name": "",
          "type": "tuple[256]"
        }
      ],
      "payable": false,
      "stateMutability": "view",
      "type": "function"
    }
  ],
  "bytecode": "0x608060405234801561001057600080fd5b506114da806100206000396000f3fe608060405234801561001057600080fd5b50600436106100625760003560e01c8063134000c01461006757806351d2cc8f146100855780638b5b9ccc146100b5578063a1499756146100d3578063c5310868146100ef578063f71d96cb146100f9575b600080fd5b61006f61012a565b60405161007c919061133e565b60405180910390f35b61009f600480360361009a9190810190611169565b61019e565b6040516100ac919061135a565b60405180910390f35b6100bd6101c7565b6040516100ca9190611322565b60405180910390f35b6100ed60048036036100e8919081019061111a565b61028d565b005b6100f7610515565b005b610113600480360361010e9190810190611169565b610660565b6040516101219291906112f9565b60405180910390f35b610132610fe6565b6101006104008060200260405190810160405280929190826104008015610194576020028201916000905b82829054906101000a900460ff1660ff168152602001906001019060208260000104928301926001038202915080841161015d5790505b5050505050905090565b6101008161040081106101ad57fe5b60209182820401919006915054906101000a900460ff1681565b6101cf61100a565b600061010080602002604051908101604052809291906000905b82821015610284578382016040518060400160405290816000820160009054906101000a900473ffffffffffffffffffffffffffffffffffffffff1673ffffffffffffffffffffffffffffffffffffffff1673ffffffffffffffffffffffffffffffffffffffff1681526020016000820160149054906101000a900461ffff1661ffff1661ffff1681525050815260200190600101906101e9565b50505050905090565b60008260ff161180156102a75750601460ff168260ff1611155b6102b057600080fd5b600073ffffffffffffffffffffffffffffffffffffffff1660008260ff1661010081106102d957fe5b0160000160009054906101000a900473ffffffffffffffffffffffffffffffffffffffff1673ffffffffffffffffffffffffffffffffffffffff161415610373573360008260ff16610100811061032c57fe5b0160000160006101000a81548173ffffffffffffffffffffffffffffffffffffffff021916908373ffffffffffffffffffffffffffffffffffffffff1602179055506103e1565b3373ffffffffffffffffffffffffffffffffffffffff1660008260ff16610100811061039b57fe5b0160000160009054906101000a900473ffffffffffffffffffffffffffffffffffffffff1673ffffffffffffffffffffffffffffffffffffffff16146103e057600080fd5b5b60008090505b8260ff168160ff1610156104c9576000610fff85169050600c857dffffffffffffffffffffffffffffffffffffffffffffffffffffffffffff16901c945060008161ffff1610158015610443575061040061ffff168161ffff16105b61044c57600080fd5b600060ff166101008261ffff16610400811061046457fe5b602091828204019190069054906101000a900460ff1660ff161461048757600080fd5b826101008261ffff16610400811061049b57fe5b602091828204019190066101000a81548160ff021916908360ff1602179055505080806001019150506103e7565b508160ff1660008260ff1661010081106104df57fe5b0160000160148282829054906101000a900461ffff160192506101000a81548161ffff021916908361ffff160217905550505050565b61051d610fe6565b610100610400806020026040519081016040528092919082610400801561057f576020028201916000905b82829054906101000a900460ff1660ff16815260200190600101906020826000010492830192600103820291508084116105485790505b5050505050905060008090505b6104008161ffff16101561065c57600060208261ffff16816105aa57fe5b069050600060208361ffff16816105bd57fe5b04905060006105cd8584846106b3565b905060006105ef868661ffff1661040081106105e557fe5b6020020151610a59565b60ff16146106225760028160ff16108061060c575060038160ff16115b1561061d5761061c858484610a78565b5b61064c565b60038160ff16141561064b57600061063b868585610b7d565b905061064986858584610eac565b505b5b505050808060010191505061058c565b5050565b600081610100811061066e57fe5b016000915090508060000160009054906101000a900473ffffffffffffffffffffffffffffffffffffffff16908060000160149054906101000a900461ffff16905082565b6000808360ff161180156106ca575060008260ff16115b15610811576106f78460018560206001870102010160ff1661040081106106ed57fe5b6020020151610a59565b61071c8585602060018701020160ff16610400811061071257fe5b6020020151610a59565b6107448660018760206001890102010360ff16610400811061073a57fe5b6020020151610a59565b6107698760018860208902010160ff16610400811061075f57fe5b6020020151610a59565b61078e8860018960208a02010360ff16610400811061078457fe5b6020020151610a59565b6107b68960018a602060018c0302010160ff1661040081106107ac57fe5b6020020151610a59565b6107db8a8a602060018c03020160ff1661040081106107d157fe5b6020020151610a59565b6108038b60018c602060018e0302010360ff1661040081106107f957fe5b6020020151610a59565b010101010101019050610a52565b60008360ff16148015610827575060008260ff16115b156108f6576108548460018560206001870102010160ff16610400811061084a57fe5b6020020151610a59565b6108798585602060018701020160ff16610400811061086f57fe5b6020020151610a59565b61089e8660018760208802010160ff16610400811061089457fe5b6020020151610a59565b6108c687600188602060018a0302010160ff1661040081106108bc57fe5b6020020151610a59565b6108eb8888602060018a03020160ff1661040081106108e157fe5b6020020151610a59565b010101019050610a52565b60008360ff1611801561090c575060008260ff16145b156109db576109398460018560206001870102010160ff16610400811061092f57fe5b6020020151610a59565b61095e8585602060018701020160ff16610400811061095457fe5b6020020151610a59565b6109868660018760206001890102010360ff16610400811061097c57fe5b6020020151610a59565b6109ab8760018860208902010160ff1661040081106109a157fe5b6020020151610a59565b6109d08860018960208a02010360ff1661040081106109c657fe5b6020020151610a59565b010101019050610a52565b610a038460018560206001870102010160ff1661040081106109f957fe5b6020020151610a59565b610a288585602060018701020160ff166104008110610a1e57fe5b6020020151610a59565b610a4d8660018760208802010160ff166104008110610a4357fe5b6020020151610a59565b010190505b9392505050565b6000808260ff1614610a6e5760019050610a73565b600090505b919050565b602060ff168260ff1610610a8b57600080fd5b602060ff168160ff1610610a9e57600080fd5b6000838360ff166104008460ff16020161ffff166104008110610abd57fe5b60200201519050600060ff168160ff161415610ad857600080fd5b60008484602085020160ff166104008110610aef57fe5b602002019060ff16908160ff16815250506000808260ff166101008110610b1257fe5b0160000160149054906101000a900461ffff1661ffff1611610b3357600080fd5b600160008260ff166101008110610b4657fe5b0160000160148282829054906101000a900461ffff160392506101000a81548161ffff021916908361ffff16021790555050505050565b6000610b87611039565b60405180610100016040528060405180604001604052806001880360000b81526020016001870360000b815250815260200160405180604001604052806001880360000b81526020018660000b815250815260200160405180604001604052806001880360000b81526020016001870160000b815250815260200160405180604001604052808760000b81526020016001870360000b815250815260200160405180604001604052808760000b81526020016001870160000b815250815260200160405180604001604052806001880160000b81526020016001870360000b815250815260200160405180604001604052806001880160000b81526020018660000b815250815260200160405180604001604052806001880160000b81526020016001870160000b8152508152509050610cbf611067565b600080905060008090506000809050600080905060008090505b60088160ff161015610e64576000878260ff1660088110610cf657fe5b60200201516000015160000b12158015610d2d5750602060000b878260ff1660088110610d1f57fe5b60200201516000015160000b125b8015610d5457506000878260ff1660088110610d4557fe5b60200201516020015160000b12155b8015610d7d5750602060000b878260ff1660088110610d6f57fe5b60200201516020015160000b125b15610e57576000878260ff1660088110610d9357fe5b60200201516000015190506000888360ff1660088110610daf57fe5b602002015160200151905060008d82602002840160ff166104008110610dd157fe5b6020020151905060008160ff1614610e535760008860ff161415610df55780610df7565b875b97508680600101975050610e0b8982610f8e565b15610e1857809550610e52565b60038560ff1610610e2857600080fd5b80898660ff1660038110610e3857fe5b602002019060ff16908160ff168152505084806001019550505b5b5050505b8080600101915050610cd9565b5060008260ff161415610e775783610e79565b815b915060038360ff1614610e8b57600080fd5b60008260ff161415610e9c57600080fd5b8196505050505050509392505050565b602060ff168360ff1610610ebf57600080fd5b602060ff168260ff1610610ed257600080fd5b600060ff168160ff161415610ee657600080fd5b6000808260ff166101008110610ef857fe5b0160000160149054906101000a900461ffff1661ffff1611610f1957600080fd5b60008160ff166101008110610f2a57fe5b01600001601481819054906101000a900461ffff168092919060010191906101000a81548161ffff021916908361ffff16021790555050808484602085020160ff166104008110610f7757fe5b602002019060ff16908160ff168152505050505050565b600080600090505b60038160ff161015610fda578260ff16848260ff1660038110610fb557fe5b602002015160ff161415610fcd576001915050610fe0565b8080600101915050610f96565b50600090505b92915050565b60405180618000016040528061040090602082028038833980820191505090505090565b604051806120000160405280610100905b611023611089565b81526020019060019003908161101b5790505090565b6040518061010001604052806008905b6110516110bd565b8152602001906001900390816110495790505090565b6040518060600160405280600390602082028038833980820191505090505090565b6040518060400160405280600073ffffffffffffffffffffffffffffffffffffffff168152602001600061ffff1681525090565b60405180604001604052806000800b81526020016000800b81525090565b6000813590506110ea81611452565b92915050565b6000813590506110ff81611469565b92915050565b60008135905061111481611480565b92915050565b60008060006060848603121561112f57600080fd5b600061113d868287016110db565b935050602061114e86828701611105565b925050604061115f86828701611105565b9150509250925092565b60006020828403121561117b57600080fd5b6000611189848285016110f0565b91505092915050565b600061119e838361128e565b60408301905092915050565b60006111b683836112db565b60208301905092915050565b6111cb816113d1565b82525050565b6111da816113d1565b82525050565b6111e981611389565b6111f381846113bb565b92506111fe82611375565b8060005b8381101561122f5781516112168782611192565b9650611221836113a1565b925050600181019050611202565b505050505050565b61124081611395565b61124a81846113c6565b92506112558261137f565b8060005b8381101561128657815161126d87826111aa565b9650611278836113ae565b925050600181019050611259565b505050505050565b6040820160008201516112a460008501826111c2565b5060208201516112b760208501826112bd565b50505050565b6112c6816113e3565b82525050565b6112d5816113e3565b82525050565b6112e481611445565b82525050565b6112f381611445565b82525050565b600060408201905061130e60008301856111d1565b61131b60208301846112cc565b9392505050565b60006140008201905061133860008301846111e0565b92915050565b6000618000820190506113546000830184611237565b92915050565b600060208201905061136f60008301846112ea565b92915050565b6000819050919050565b6000819050919050565b60006101009050919050565b60006104009050919050565b6000602082019050919050565b6000602082019050919050565b600081905092915050565b600081905092915050565b60006113dc826113f1565b9050919050565b600061ffff82169050919050565b600073ffffffffffffffffffffffffffffffffffffffff82169050919050565b60007dffffffffffffffffffffffffffffffffffffffffffffffffffffffffffff82169050919050565b6000819050919050565b600060ff82169050919050565b61145b81611411565b811461146657600080fd5b50565b6114728161143b565b811461147d57600080fd5b50565b61148981611445565b811461149457600080fd5b5056fea365627a7a72315820bb66e8498b42fab109a0f83cc3df3b847950e58f44fb23b70aa1ab383f0673076c6578706572696d656e74616cf564736f6c63430005100040",
  "source": "pragma solidity ^0.5.0;\npragma experimental ABIEncoderV2;\n\ncontract LedgerLife {\n    uint8 constant FREE = 0;\n    uint8 constant MAX_BUY_COUNT = 20;\n    uint8 constant GRID_WIDTH = 32;\n    uint8 constant GRID_HEIGHT = 32;\n    uint16 constant GRID_SIZE = 1024;\n\n    struct Player {\n        address addr;\n        uint16 cellCount;\n    }\n    Player[256] public players;\n\n    uint8[GRID_SIZE] public grid;\n\n    // take ownership of a list of cells\n    function buyCells(\n        uint240 cells,\n        uint8 cellCount,\n        uint8 playerID\n    ) public {\n        // max 20 cells can be bought in a single call\n        require(cellCount > 0 && cellCount <= MAX_BUY_COUNT);\n\n        if(players[playerID].addr == address(0)){\n            players[playerID].addr = msg.sender;\n        }\n        else{\n            // check that the playerID matches the caller address\n            require(players[playerID].addr == msg.sender);\n        }\n\n        // assign each cell to the player's ID\n        for (uint8 index = 0; index < cellCount; index++) {\n            uint16 cell_index = (uint16)(cells & 0x0FFF);\n            cells = cells >> 12;\n            // check that the cell is contained in the grid\n            require(cell_index >= 0 && cell_index < GRID_SIZE);\n            // check that the cell is not yet owned\n            require(grid[cell_index] == FREE);\n            grid[cell_index] = playerID;\n        }\n\n        // finally, increase the player's cell count\n        players[playerID].cellCount += cellCount;\n    }\n\n    // internal function used to add new cells created via reproduction\n    function _add_cell(\n        uint8[GRID_SIZE] memory m_grid,\n        uint8 x,\n        uint8 y,\n        uint8 playerID\n    ) private {\n        require(x < GRID_WIDTH);\n        require(y < GRID_HEIGHT);\n        require(playerID != FREE);\n        // if the player has less than 1 cell, there is no way he'd get a new cell by reproduction\n        require(players[playerID].cellCount > 0);\n        players[playerID].cellCount++;\n        m_grid[y * GRID_WIDTH + x] = playerID;\n    }\n\n    function _remove_cell(\n        uint8[GRID_SIZE] memory m_grid,\n        uint8 x,\n        uint8 y\n    ) private {\n        require(x < GRID_WIDTH);\n        require(y < GRID_HEIGHT);\n        uint8 playerID = m_grid[y * GRID_SIZE + x];\n        require(playerID != FREE);\n        m_grid[y * GRID_WIDTH + x] = FREE;\n        require(players[playerID].cellCount > 0);\n        players[playerID].cellCount -= 1;\n    }\n\n    function is_owned(uint8 cell) private pure returns (uint8) {\n        if (cell != 0) {\n            return 1;\n        }\n        return 0;\n    }\n\n    struct Coordinate {\n        int8 x;\n        int8 y;\n    }\n\n    function _contains(uint8[3] memory array, uint8 value)\n        private\n        pure\n        returns (bool)\n    {\n        for (uint8 i = 0; i < array.length; i++) {\n            if (array[i] == value) {\n                return true;\n            }\n        }\n        return false;\n    }\n\n    function get_winner_neighbour(\n        uint8[GRID_SIZE] memory m_grid,\n        int8 x,\n        int8 y\n    ) private pure returns (uint8) {\n        Coordinate[8] memory neighbours = [\n            Coordinate(x - 1, y - 1),\n            Coordinate(x - 1, y),\n            Coordinate(x - 1, y + 1),\n            Coordinate(x, y - 1),\n            Coordinate(x, y + 1),\n            Coordinate(x + 1, y - 1),\n            Coordinate(x + 1, y),\n            Coordinate(x + 1, y + 1)\n        ];\n\n        uint8[3] memory neighboursList;\n        uint8 firstNeighbour = 0;\n        uint8 neighboursCount = 0;\n        uint8 winner = 0;\n        uint8 neighbourIndex = 0;\n\n        for (uint8 i = 0; i < neighbours.length; i++) {\n            if (\n                neighbours[i].x >= 0 &&\n                neighbours[i].x < int8(GRID_WIDTH) &&\n                neighbours[i].y >= 0 &&\n                neighbours[i].y < int8(GRID_HEIGHT)\n            ) {\n                uint8 _x = uint8(neighbours[i].x);\n                uint8 _y = uint8(neighbours[i].y);\n                uint8 currentNeighbour = m_grid[_x + GRID_WIDTH * _y];\n                if (currentNeighbour != 0) {\n                    firstNeighbour = firstNeighbour != 0\n                        ? firstNeighbour\n                        : currentNeighbour;\n                    neighboursCount++;\n                    if (_contains(neighboursList, currentNeighbour)) {\n                        winner = currentNeighbour;\n                    } else {\n                        require(neighbourIndex < 3);\n                        neighboursList[neighbourIndex] = currentNeighbour;\n                        neighbourIndex++;\n                    }\n                }\n            }\n        }\n        // If there is no majority neighbour, then the first neighbour wins\n        winner = winner != 0 ? winner : firstNeighbour;\n        require(neighboursCount == 3);\n        require(winner != 0);\n        return winner;\n    }\n\n    function count_neighbours(\n        uint8[GRID_SIZE] memory m_grid,\n        uint8 x,\n        uint8 y\n    ) private pure returns (uint8) {\n        if (x > 0 && y > 0) {\n            return\n                is_owned(m_grid[(y - 1) * 32 + x - 1]) +\n                is_owned(m_grid[(y - 1) * 32 + x]) +\n                is_owned(m_grid[(y - 1) * 32 + x + 1]) +\n                is_owned(m_grid[(y) * 32 + x - 1]) +\n                is_owned(m_grid[(y) * 32 + x + 1]) +\n                is_owned(m_grid[(y + 1) * 32 + x - 1]) +\n                is_owned(m_grid[(y + 1) * 32 + x]) +\n                is_owned(m_grid[(y + 1) * 32 + x + 1]);\n        } else if (x == 0 && y > 0) {\n            return\n                is_owned(m_grid[(y - 1) * 32 + x]) +\n                is_owned(m_grid[(y - 1) * 32 + x + 1]) +\n                is_owned(m_grid[(y) * 32 + x + 1]) +\n                is_owned(m_grid[(y + 1) * 32 + x]) +\n                is_owned(m_grid[(y + 1) * 32 + x + 1]);\n        } else if (x > 0 && y == 0) {\n            return\n                is_owned(m_grid[(y) * 32 + x - 1]) +\n                is_owned(m_grid[(y) * 32 + x + 1]) +\n                is_owned(m_grid[(y + 1) * 32 + x - 1]) +\n                is_owned(m_grid[(y + 1) * 32 + x]) +\n                is_owned(m_grid[(y + 1) * 32 + x + 1]);\n        } else {\n            return\n                is_owned(m_grid[(y) * 32 + x + 1]) +\n                is_owned(m_grid[(y + 1) * 32 + x]) +\n                is_owned(m_grid[(y + 1) * 32 + x + 1]);\n        }\n    }\n\n    function life() public {\n        uint8[GRID_SIZE] memory m_grid = grid;\n        for (uint16 index = 0; index < m_grid.length; index++) {\n            uint8 x = uint8(index % 32);\n            uint8 y = uint8(index / 32);\n            uint8 neighboursCount = count_neighbours(m_grid, x, y);\n            if (is_owned(m_grid[index]) != 0) {\n                if (neighboursCount < 2 || neighboursCount > 3) {\n                    _remove_cell(m_grid, x, y);\n                }\n            } else {\n                if (neighboursCount == 3) {\n                    uint8 newCellOwner = get_winner_neighbour(\n                        m_grid,\n                        int8(x),\n                        int8(y)\n                    );\n                    _add_cell(m_grid, x, y, newCellOwner);\n                }\n            }\n        }\n    }\n\n    function getGrid() public view returns (uint8[GRID_SIZE] memory) {\n        return grid;\n    }\n\n    function getPlayers() public view returns (Player[256] memory) {\n        return players;\n    }\n}\n",
  "sourcePath": "/Users/user1/Desktop/Ledger-Life/front/solidity/contracts/LedgerLife.sol",
  "compiler": {
    "name": "solc",
    "version": "0.5.16+commit.9c3226ce.Emscripten.clang"
  },
  "schemaVersion": "3.3.2",
  "updatedAt": "2020-12-16T20:02:23.494Z",
  "networkType": "ethereum",
  "devdoc": {
    "methods": {}
  },
  "userdoc": {
    "methods": {}
  }
}