{
  "contractName": "LedgerLife",
  "abi": [
    {
      "constant": true,
      "inputs": [
        {
          "internalType": "uint256",
          "name": "",
          "type": "uint256"
        }
      ],
      "name": "grid",
      "outputs": [
        {
          "internalType": "address",
          "name": "",
          "type": "address"
        }
      ],
      "payable": false,
      "stateMutability": "view",
      "type": "function"
    },
    {
      "constant": false,
      "inputs": [
        {
          "internalType": "uint256",
          "name": "cells",
          "type": "uint256"
        }
      ],
      "name": "buyCells",
      "outputs": [],
      "payable": false,
      "stateMutability": "nonpayable",
      "type": "function"
    },
    {
      "constant": false,
      "inputs": [],
      "name": "life",
      "outputs": [],
      "payable": false,
      "stateMutability": "nonpayable",
      "type": "function"
    },
    {
      "constant": true,
      "inputs": [],
      "name": "getGrid",
      "outputs": [
        {
          "internalType": "address[1024]",
          "name": "",
          "type": "address[1024]"
        }
      ],
      "payable": false,
      "stateMutability": "view",
      "type": "function"
    }
  ],
  "bytecode": "0x608060405234801561001057600080fd5b50610ae5806100206000396000f3fe608060405234801561001057600080fd5b506004361061004c5760003560e01c8063134000c01461005157806351d2cc8f146100985780636fe2d62914610106578063c531086814610134575b600080fd5b61005961013e565b604051808261040060200280838360005b8381101561008557808201518184015260208101905061006a565b5050505090500191505060405180910390f35b6100c4600480360360208110156100ae57600080fd5b81019080803590602001909291905050506101c1565b604051808273ffffffffffffffffffffffffffffffffffffffff1673ffffffffffffffffffffffffffffffffffffffff16815260200191505060405180910390f35b6101326004803603602081101561011c57600080fd5b81019080803590602001909291905050506101f5565b005b61013c61031a565b005b610146610a8c565b600061040080602002604051908101604052809291908261040080156101b7576020028201915b8160009054906101000a900473ffffffffffffffffffffffffffffffffffffffff1673ffffffffffffffffffffffffffffffffffffffff168152602001906001019080831161016d575b5050505050905090565b60008161040081106101cf57fe5b016000915054906101000a900473ffffffffffffffffffffffffffffffffffffffff1681565b6000601f8216905060008160ff16118015610213575060158160ff16105b61021c57600080fd5b601082901c915060008090505b8160ff168160ff161015610315576000610fff84169050600c84901c935060008161ffff161015801561026157506104008161ffff16105b61026a57600080fd5b60006102a860008361ffff16610400811061028157fe5b0160009054906101000a900473ffffffffffffffffffffffffffffffffffffffff16610429565b60ff16146102b557600080fd5b3360008261ffff1661040081106102c857fe5b0160006101000a81548173ffffffffffffffffffffffffffffffffffffffff021916908373ffffffffffffffffffffffffffffffffffffffff160217905550508080600101915050610229565b505050565b60008090505b6104008161ffff16101561042657600061036c60008361ffff16610400811061034557fe5b0160009054906101000a900473ffffffffffffffffffffffffffffffffffffffff16610429565b60ff161461041957600060208261ffff168161038457fe5b069050600060208361ffff168161039757fe5b04905060006103a68383610471565b905060028160ff1610806103bd575060038160ff16115b15610415576000808561ffff1661040081106103d557fe5b0160006101000a81548173ffffffffffffffffffffffffffffffffffffffff021916908373ffffffffffffffffffffffffffffffffffffffff1602179055505b5050505b8080600101915050610320565b50565b60008073ffffffffffffffffffffffffffffffffffffffff168273ffffffffffffffffffffffffffffffffffffffff1614610467576001905061046c565b600090505b919050565b6000808360ff16118015610488575060008260ff16115b156106bf576104d3600060018560206001870102010160ff1661040081106104ac57fe5b0160009054906101000a900473ffffffffffffffffffffffffffffffffffffffff16610429565b610516600085602060018701020160ff1661040081106104ef57fe5b0160009054906101000a900473ffffffffffffffffffffffffffffffffffffffff16610429565b61055c600060018760206001890102010360ff16610400811061053557fe5b0160009054906101000a900473ffffffffffffffffffffffffffffffffffffffff16610429565b61059f600060018860208902010160ff16610400811061057857fe5b0160009054906101000a900473ffffffffffffffffffffffffffffffffffffffff16610429565b6105e2600060018960208a02010360ff1661040081106105bb57fe5b0160009054906101000a900473ffffffffffffffffffffffffffffffffffffffff16610429565b610628600060018a602060018c0302010160ff16610400811061060157fe5b0160009054906101000a900473ffffffffffffffffffffffffffffffffffffffff16610429565b61066b60008a602060018c03020160ff16610400811061064457fe5b0160009054906101000a900473ffffffffffffffffffffffffffffffffffffffff16610429565b6106b1600060018c602060018e0302010360ff16610400811061068a57fe5b0160009054906101000a900473ffffffffffffffffffffffffffffffffffffffff16610429565b010101010101019050610a86565b60008360ff161480156106d5575060008260ff16115b1561083a57610720600060018560206001870102010160ff1661040081106106f957fe5b0160009054906101000a900473ffffffffffffffffffffffffffffffffffffffff16610429565b610763600085602060018701020160ff16610400811061073c57fe5b0160009054906101000a900473ffffffffffffffffffffffffffffffffffffffff16610429565b6107a6600060018760208802010160ff16610400811061077f57fe5b0160009054906101000a900473ffffffffffffffffffffffffffffffffffffffff16610429565b6107ec6000600188602060018a0302010160ff1661040081106107c557fe5b0160009054906101000a900473ffffffffffffffffffffffffffffffffffffffff16610429565b61082f600088602060018a03020160ff16610400811061080857fe5b0160009054906101000a900473ffffffffffffffffffffffffffffffffffffffff16610429565b010101019050610a86565b60008360ff16118015610850575060008260ff16145b156109b55761089b600060018560206001870102010160ff16610400811061087457fe5b0160009054906101000a900473ffffffffffffffffffffffffffffffffffffffff16610429565b6108de600085602060018701020160ff1661040081106108b757fe5b0160009054906101000a900473ffffffffffffffffffffffffffffffffffffffff16610429565b610924600060018760206001890102010360ff1661040081106108fd57fe5b0160009054906101000a900473ffffffffffffffffffffffffffffffffffffffff16610429565b610967600060018860208902010160ff16610400811061094057fe5b0160009054906101000a900473ffffffffffffffffffffffffffffffffffffffff16610429565b6109aa600060018960208a02010360ff16610400811061098357fe5b0160009054906101000a900473ffffffffffffffffffffffffffffffffffffffff16610429565b010101019050610a86565b6109fb600060018560206001870102010160ff1661040081106109d457fe5b0160009054906101000a900473ffffffffffffffffffffffffffffffffffffffff16610429565b610a3e600085602060018701020160ff166104008110610a1757fe5b0160009054906101000a900473ffffffffffffffffffffffffffffffffffffffff16610429565b610a81600060018760208802010160ff166104008110610a5a57fe5b0160009054906101000a900473ffffffffffffffffffffffffffffffffffffffff16610429565b010190505b92915050565b6040518061800001604052806104009060208202803883398082019150509050509056fea265627a7a72315820b87c99f3d1869f6e725e78429e3a984eaf2d006e29510c8f1b87f6b655865a1364736f6c63430005100032",
  "source": "pragma solidity ^0.5.0;\n\ncontract LedgerLife {\n    address[32 * 32] public grid;\n\n    // take ownership of a list of cells\n    function buyCells(uint256 cells) public {\n        uint8 num_cells = (uint8)(cells & 0x1F);\n        require(num_cells > 0 && num_cells < 21);\n        cells = cells >> (5 + 11); // 5 bits for num_cells, 11 unused\n        for (uint8 index = 0; index < num_cells; index++) {\n            uint16 cell_index = (uint16)(cells & 0x0FFF);\n            cells = cells >> 12;\n            require(cell_index >= 0 && cell_index < (32 * 32));\n            require(is_owned(grid[cell_index]) == 0);\n            grid[cell_index] = msg.sender;\n        }\n    }\n\n    function is_owned(address cell) private returns (uint8) {\n        if (cell != address(0)) {\n            return 1;\n        }\n        return 0;\n    }\n\n    function count_neighbours(uint8 x, uint8 y) private returns (uint8) {\n        if (x > 0 && y > 0) {\n            return\n                is_owned(grid[(y - 1) * 32 + x - 1]) +\n                is_owned(grid[(y - 1) * 32 + x]) +\n                is_owned(grid[(y - 1) * 32 + x + 1]) +\n                is_owned(grid[(y) * 32 + x - 1]) +\n                is_owned(grid[(y) * 32 + x + 1]) +\n                is_owned(grid[(y + 1) * 32 + x - 1]) +\n                is_owned(grid[(y + 1) * 32 + x]) +\n                is_owned(grid[(y + 1) * 32 + x + 1]);\n        } else if (x == 0 && y > 0) {\n            return\n                is_owned(grid[(y - 1) * 32 + x]) +\n                is_owned(grid[(y - 1) * 32 + x + 1]) +\n                is_owned(grid[(y) * 32 + x + 1]) +\n                is_owned(grid[(y + 1) * 32 + x]) +\n                is_owned(grid[(y + 1) * 32 + x + 1]);\n        } else if (x > 0 && y == 0) {\n            return\n                is_owned(grid[(y) * 32 + x - 1]) +\n                is_owned(grid[(y) * 32 + x + 1]) +\n                is_owned(grid[(y + 1) * 32 + x - 1]) +\n                is_owned(grid[(y + 1) * 32 + x]) +\n                is_owned(grid[(y + 1) * 32 + x + 1]);\n        } else {\n            return\n                is_owned(grid[(y) * 32 + x + 1]) +\n                is_owned(grid[(y + 1) * 32 + x]) +\n                is_owned(grid[(y + 1) * 32 + x + 1]);\n        }\n    }\n\n    function life() public {\n        for (uint16 index = 0; index < grid.length; index++) {\n            if (is_owned(grid[index]) != 0) {\n                uint8 x = (uint8)(index % 32);\n                uint8 y = (uint8)(index / 32);\n                uint8 neighbours = count_neighbours(x, y);\n                if (neighbours < 2 || neighbours > 3) {\n                    grid[index] = address(0);\n                }\n            }\n        }\n    }\n\n    function getGrid() public view returns (address[32 * 32] memory) {\n        return grid;\n    }\n}\n",
  "sourcePath": "/Users/user1/Desktop/Ledger-Life/front/solidity/contracts/LedgerLife.sol",
  "compiler": {
    "name": "solc",
    "version": "0.5.16+commit.9c3226ce.Emscripten.clang"
  },
  "schemaVersion": "3.3.2",
  "updatedAt": "2020-12-16T13:36:24.145Z",
  "networkType": "ethereum",
  "devdoc": {
    "methods": {}
  },
  "userdoc": {
    "methods": {}
  }
}